{
  "_format": "hh-sol-artifact-1",
  "contractName": "TaskContract",
  "sourceName": "contracts/TaskContract.sol",
  "abi": [
    {
      "anonymous": false,
      "inputs": [
        {
          "indexed": false,
          "internalType": "address",
          "name": "receipient",
          "type": "address"
        },
        {
          "indexed": false,
          "internalType": "uint256",
          "name": "taskId",
          "type": "uint256"
        }
      ],
      "name": "AddTask",
      "type": "event"
    },
    {
      "anonymous": false,
      "inputs": [
        {
          "indexed": false,
          "internalType": "uint256",
          "name": "taskId",
          "type": "uint256"
        },
        {
          "indexed": false,
          "internalType": "bool",
          "name": "isDeleted",
          "type": "bool"
        }
      ],
      "name": "DeleteTask",
      "type": "event"
    },
    {
      "inputs": [
        {
          "internalType": "string",
          "name": "taskText",
          "type": "string"
        },
        {
          "internalType": "bool",
          "name": "isDeleted",
          "type": "bool"
        }
      ],
      "name": "addTask",
      "outputs": [],
      "stateMutability": "nonpayable",
      "type": "function"
    },
    {
      "inputs": [
        {
          "internalType": "uint256",
          "name": "taskId",
          "type": "uint256"
        },
        {
          "internalType": "bool",
          "name": "isDeleted",
          "type": "bool"
        }
      ],
      "name": "deleteTask",
      "outputs": [],
      "stateMutability": "nonpayable",
      "type": "function"
    },
    {
      "inputs": [],
      "name": "getMyTasks",
      "outputs": [
        {
          "components": [
            {
              "internalType": "uint256",
              "name": "id",
              "type": "uint256"
            },
            {
              "internalType": "string",
              "name": "taskText",
              "type": "string"
            },
            {
              "internalType": "bool",
              "name": "isDeleted",
              "type": "bool"
            }
          ],
          "internalType": "struct TaskContract.Task[]",
          "name": "",
          "type": "tuple[]"
        }
      ],
      "stateMutability": "view",
      "type": "function"
    }
  ],
  "bytecode": "0x608060405234801561001057600080fd5b50610e5d806100206000396000f3fe608060405234801561001057600080fd5b50600436106100415760003560e01c806320df4581146100465780636e13f81814610062578063aaba290714610080575b600080fd5b610060600480360381019061005b919061074f565b61009c565b005b61006a6101bf565b6040516100779190610964565b60405180910390f35b61009a600480360381019061009591906109b2565b6104b5565b005b60008080549050905060006040518060600160405280838152602001858152602001841515815250908060018154018082558091505060019003906000526020600020906003020160009091909190915060008201518160000155602082015181600101908161010c9190610bfe565b5060408201518160020160006101000a81548160ff0219169083151502179055505050336001600083815260200190815260200160002060006101000a81548173ffffffffffffffffffffffffffffffffffffffff021916908373ffffffffffffffffffffffffffffffffffffffff1602179055507f1f54e1ba1832d428fbd7e7792beaf62b1fc5a382c207ffd614209c1413e94fda33826040516101b2929190610d20565b60405180910390a1505050565b60606000808054905067ffffffffffffffff8111156101e1576101e06105ec565b5b60405190808252806020026020018201604052801561021a57816020015b61020761059a565b8152602001906001900390816101ff5790505b5090506000805b6000805490508110156103fb573373ffffffffffffffffffffffffffffffffffffffff166001600083815260200190815260200160002060009054906101000a900473ffffffffffffffffffffffffffffffffffffffff1673ffffffffffffffffffffffffffffffffffffffff161480156102d2575060001515600082815481106102af576102ae610d49565b5b906000526020600020906003020160020160009054906101000a900460ff161515145b156103e857600081815481106102eb576102ea610d49565b5b90600052602060002090600302016040518060600160405290816000820154815260200160018201805461031e90610a21565b80601f016020809104026020016040519081016040528092919081815260200182805461034a90610a21565b80156103975780601f1061036c57610100808354040283529160200191610397565b820191906000526020600020905b81548152906001019060200180831161037a57829003601f168201915b505050505081526020016002820160009054906101000a900460ff1615151515815250508383815181106103ce576103cd610d49565b5b602002602001018190525081806103e490610da7565b9250505b80806103f390610da7565b915050610221565b5060008167ffffffffffffffff811115610418576104176105ec565b5b60405190808252806020026020018201604052801561045157816020015b61043e61059a565b8152602001906001900390816104365790505b50905060005b828110156104ab5783818151811061047257610471610d49565b5b602002602001015182828151811061048d5761048c610d49565b5b602002602001018190525080806104a390610da7565b915050610457565b5080935050505090565b3373ffffffffffffffffffffffffffffffffffffffff166001600084815260200190815260200160002060009054906101000a900473ffffffffffffffffffffffffffffffffffffffff1673ffffffffffffffffffffffffffffffffffffffff161461052057600080fd5b806000838154811061053557610534610d49565b5b906000526020600020906003020160020160006101000a81548160ff0219169083151502179055507ff88a35c3d2016c409a46570b994a17b408dbc83c14a03f521512d50b85386d06828260405161058e929190610dfe565b60405180910390a15050565b604051806060016040528060008152602001606081526020016000151581525090565b6000604051905090565b600080fd5b600080fd5b600080fd5b600080fd5b6000601f19601f8301169050919050565b7f4e487b7100000000000000000000000000000000000000000000000000000000600052604160045260246000fd5b610624826105db565b810181811067ffffffffffffffff82111715610643576106426105ec565b5b80604052505050565b60006106566105bd565b9050610662828261061b565b919050565b600067ffffffffffffffff821115610682576106816105ec565b5b61068b826105db565b9050602081019050919050565b82818337600083830152505050565b60006106ba6106b584610667565b61064c565b9050828152602081018484840111156106d6576106d56105d6565b5b6106e1848285610698565b509392505050565b600082601f8301126106fe576106fd6105d1565b5b813561070e8482602086016106a7565b91505092915050565b60008115159050919050565b61072c81610717565b811461073757600080fd5b50565b60008135905061074981610723565b92915050565b60008060408385031215610766576107656105c7565b5b600083013567ffffffffffffffff811115610784576107836105cc565b5b610790858286016106e9565b92505060206107a18582860161073a565b9150509250929050565b600081519050919050565b600082825260208201905092915050565b6000819050602082019050919050565b6000819050919050565b6107ea816107d7565b82525050565b600081519050919050565b600082825260208201905092915050565b60005b8381101561082a57808201518184015260208101905061080f565b60008484015250505050565b6000610841826107f0565b61084b81856107fb565b935061085b81856020860161080c565b610864816105db565b840191505092915050565b61087881610717565b82525050565b600060608301600083015161089660008601826107e1565b50602083015184820360208601526108ae8282610836565b91505060408301516108c3604086018261086f565b508091505092915050565b60006108da838361087e565b905092915050565b6000602082019050919050565b60006108fa826107ab565b61090481856107b6565b935083602082028501610916856107c7565b8060005b85811015610952578484038952815161093385826108ce565b945061093e836108e2565b925060208a0199505060018101905061091a565b50829750879550505050505092915050565b6000602082019050818103600083015261097e81846108ef565b905092915050565b61098f816107d7565b811461099a57600080fd5b50565b6000813590506109ac81610986565b92915050565b600080604083850312156109c9576109c86105c7565b5b60006109d78582860161099d565b92505060206109e88582860161073a565b9150509250929050565b7f4e487b7100000000000000000000000000000000000000000000000000000000600052602260045260246000fd5b60006002820490506001821680610a3957607f821691505b602082108103610a4c57610a4b6109f2565b5b50919050565b60008190508160005260206000209050919050565b60006020601f8301049050919050565b600082821b905092915050565b600060088302610ab47fffffffffffffffffffffffffffffffffffffffffffffffffffffffffffffffff82610a77565b610abe8683610a77565b95508019841693508086168417925050509392505050565b6000819050919050565b6000610afb610af6610af1846107d7565b610ad6565b6107d7565b9050919050565b6000819050919050565b610b1583610ae0565b610b29610b2182610b02565b848454610a84565b825550505050565b600090565b610b3e610b31565b610b49818484610b0c565b505050565b5b81811015610b6d57610b62600082610b36565b600181019050610b4f565b5050565b601f821115610bb257610b8381610a52565b610b8c84610a67565b81016020851015610b9b578190505b610baf610ba785610a67565b830182610b4e565b50505b505050565b600082821c905092915050565b6000610bd560001984600802610bb7565b1980831691505092915050565b6000610bee8383610bc4565b9150826002028217905092915050565b610c07826107f0565b67ffffffffffffffff811115610c2057610c1f6105ec565b5b610c2a8254610a21565b610c35828285610b71565b600060209050601f831160018114610c685760008415610c56578287015190505b610c608582610be2565b865550610cc8565b601f198416610c7686610a52565b60005b82811015610c9e57848901518255600182019150602085019450602081019050610c79565b86831015610cbb5784890151610cb7601f891682610bc4565b8355505b6001600288020188555050505b505050505050565b600073ffffffffffffffffffffffffffffffffffffffff82169050919050565b6000610cfb82610cd0565b9050919050565b610d0b81610cf0565b82525050565b610d1a816107d7565b82525050565b6000604082019050610d356000830185610d02565b610d426020830184610d11565b9392505050565b7f4e487b7100000000000000000000000000000000000000000000000000000000600052603260045260246000fd5b7f4e487b7100000000000000000000000000000000000000000000000000000000600052601160045260246000fd5b6000610db2826107d7565b91507fffffffffffffffffffffffffffffffffffffffffffffffffffffffffffffffff8203610de457610de3610d78565b5b600182019050919050565b610df881610717565b82525050565b6000604082019050610e136000830185610d11565b610e206020830184610def565b939250505056fea26469706673582212203e80e1ac591eccdffad03db3eae047b0aeabdc6a42c658969a62208057154c7964736f6c63430008110033",
  "linkReferences": {},
  "deployedLinkReferences": {}
}